{
  "contractName": "Contest",
  "abi": [
    {
      "inputs": [],
      "stateMutability": "nonpayable",
      "type": "constructor"
    },
    {
      "inputs": [
        {
          "internalType": "uint256",
          "name": "",
          "type": "uint256"
        }
      ],
      "name": "contestants",
      "outputs": [
        {
          "internalType": "uint256",
          "name": "id",
          "type": "uint256"
        },
        {
          "internalType": "string",
          "name": "name",
          "type": "string"
        },
        {
          "internalType": "uint256",
          "name": "voteCount",
          "type": "uint256"
        },
        {
          "internalType": "string",
          "name": "party",
          "type": "string"
        },
        {
          "internalType": "uint256",
          "name": "age",
          "type": "uint256"
        },
        {
          "internalType": "string",
          "name": "qualification",
          "type": "string"
        }
      ],
      "stateMutability": "view",
      "type": "function",
      "constant": true
    },
    {
      "inputs": [],
      "name": "contestantsCount",
      "outputs": [
        {
          "internalType": "uint256",
          "name": "",
          "type": "uint256"
        }
      ],
      "stateMutability": "view",
      "type": "function",
      "constant": true
    },
    {
      "inputs": [],
      "name": "state",
      "outputs": [
        {
          "internalType": "enum Contest.PHASE",
          "name": "",
          "type": "uint8"
        }
      ],
      "stateMutability": "view",
      "type": "function",
      "constant": true
    },
    {
      "inputs": [
        {
          "internalType": "address",
          "name": "",
          "type": "address"
        }
      ],
      "name": "voters",
      "outputs": [
        {
          "internalType": "bool",
          "name": "hasVoted",
          "type": "bool"
        },
        {
          "internalType": "uint256",
          "name": "vote",
          "type": "uint256"
        },
        {
          "internalType": "bool",
          "name": "isRegistered",
          "type": "bool"
        }
      ],
      "stateMutability": "view",
      "type": "function",
      "constant": true
    },
    {
      "inputs": [
        {
          "internalType": "enum Contest.PHASE",
          "name": "x",
          "type": "uint8"
        }
      ],
      "name": "changeState",
      "outputs": [],
      "stateMutability": "nonpayable",
      "type": "function"
    },
    {
      "inputs": [
        {
          "internalType": "string",
          "name": "_name",
          "type": "string"
        },
        {
          "internalType": "string",
          "name": "_party",
          "type": "string"
        },
        {
          "internalType": "uint256",
          "name": "_age",
          "type": "uint256"
        },
        {
          "internalType": "string",
          "name": "_qualification",
          "type": "string"
        }
      ],
      "name": "addContestant",
      "outputs": [],
      "stateMutability": "nonpayable",
      "type": "function"
    },
    {
      "inputs": [
        {
          "internalType": "address",
          "name": "user",
          "type": "address"
        }
      ],
      "name": "voterRegisteration",
      "outputs": [],
      "stateMutability": "nonpayable",
      "type": "function"
    },
    {
      "inputs": [
        {
          "internalType": "uint256",
          "name": "_contestantId",
          "type": "uint256"
        }
      ],
      "name": "vote",
      "outputs": [],
      "stateMutability": "nonpayable",
      "type": "function"
    },
    {
      "inputs": [],
      "name": "getWinner",
      "outputs": [
        {
          "components": [
            {
              "internalType": "uint256",
              "name": "id",
              "type": "uint256"
            },
            {
              "internalType": "string",
              "name": "name",
              "type": "string"
            },
            {
              "internalType": "uint256",
              "name": "voteCount",
              "type": "uint256"
            },
            {
              "internalType": "string",
              "name": "party",
              "type": "string"
            },
            {
              "internalType": "uint256",
              "name": "age",
              "type": "uint256"
            },
            {
              "internalType": "string",
              "name": "qualification",
              "type": "string"
            }
          ],
          "internalType": "struct Contest.Contestant",
          "name": "winner",
          "type": "tuple"
        }
      ],
      "stateMutability": "view",
      "type": "function",
      "constant": true
    }
  ],
  "bytecode": "0x608060405234801561001057600080fd5b50336000806101000a81548173ffffffffffffffffffffffffffffffffffffffff021916908373ffffffffffffffffffffffffffffffffffffffff1602179055506000600460006101000a81548160ff0219169083600281111561007757610076610081565b5b02179055506100b0565b7f4e487b7100000000000000000000000000000000000000000000000000000000600052602160045260246000fd5b6115b6806100bf6000396000f3fe608060405234801561001057600080fd5b50600436106100935760003560e01c8063a3ec138d11610066578063a3ec138d1461010a578063c19d93fb1461013c578063dfd50f521461015a578063ec63d1c81461018f578063ef328186146101ad57610093565b80630121b93f14610098578063268f1153146100b4578063698ceb5f146100d05780638e7ea5b2146100ec575b600080fd5b6100b260048036038101906100ad9190610c0b565b6101c9565b005b6100ce60048036038101906100c99190610c5d565b6103aa565b005b6100ea60048036038101906100e59190610ce8565b61046e565b005b6100f4610566565b6040516101019190610e4b565b60405180910390f35b610124600480360381019061011f9190610ce8565b6107fa565b60405161013393929190610e97565b60405180910390f35b61014461083e565b6040516101519190610f45565b60405180910390f35b610174600480360381019061016f9190610c0b565b610851565b60405161018696959493929190610faa565b60405180910390f35b610197610a25565b6040516101a49190611020565b60405180910390f35b6101c760048036038101906101c29190611170565b610a2b565b005b60018060028111156101de576101dd610ece565b5b600460009054906101000a900460ff166002811115610200576101ff610ece565b5b1461020a57600080fd5b600260003373ffffffffffffffffffffffffffffffffffffffff1673ffffffffffffffffffffffffffffffffffffffff16815260200190815260200160002060020160009054906101000a900460ff1661026357600080fd5b600260003373ffffffffffffffffffffffffffffffffffffffff1673ffffffffffffffffffffffffffffffffffffffff16815260200190815260200160002060000160009054906101000a900460ff16156102bd57600080fd5b6000821180156102cf57506003548211155b6102d857600080fd5b6001600083815260200190815260200160002060020160008154809291906102ff9061125a565b91905055506001600260003373ffffffffffffffffffffffffffffffffffffffff1673ffffffffffffffffffffffffffffffffffffffff16815260200190815260200160002060000160006101000a81548160ff02191690831515021790555081600260003373ffffffffffffffffffffffffffffffffffffffff1673ffffffffffffffffffffffffffffffffffffffff168152602001908152602001600020600101819055505050565b60008054906101000a900473ffffffffffffffffffffffffffffffffffffffff1673ffffffffffffffffffffffffffffffffffffffff163373ffffffffffffffffffffffffffffffffffffffff161461040257600080fd5b600460009054906101000a900460ff16600281111561042457610423610ece565b5b81600281111561043757610436610ece565b5b1161044157600080fd5b80600460006101000a81548160ff0219169083600281111561046657610465610ece565b5b021790555050565b60008054906101000a900473ffffffffffffffffffffffffffffffffffffffff1673ffffffffffffffffffffffffffffffffffffffff163373ffffffffffffffffffffffffffffffffffffffff16146104c657600080fd5b60008060028111156104db576104da610ece565b5b600460009054906101000a900460ff1660028111156104fd576104fc610ece565b5b1461050757600080fd5b6001600260008473ffffffffffffffffffffffffffffffffffffffff1673ffffffffffffffffffffffffffffffffffffffff16815260200190815260200160002060020160006101000a81548160ff0219169083151502179055505050565b61056e610b8b565b600280600281111561058357610582610ece565b5b600460009054906101000a900460ff1660028111156105a5576105a4610ece565b5b146105af57600080fd5b6105b7610b8b565b6000600190505b60035481116107f1578160400151600160008381526020019081526020016000206002015411156107de57600160008281526020019081526020016000206040518060c001604052908160008201548152602001600182018054610621906112d1565b80601f016020809104026020016040519081016040528092919081815260200182805461064d906112d1565b801561069a5780601f1061066f5761010080835404028352916020019161069a565b820191906000526020600020905b81548152906001019060200180831161067d57829003601f168201915b50505050508152602001600282015481526020016003820180546106bd906112d1565b80601f01602080910402602001604051908101604052809291908181526020018280546106e9906112d1565b80156107365780601f1061070b57610100808354040283529160200191610736565b820191906000526020600020905b81548152906001019060200180831161071957829003601f168201915b5050505050815260200160048201548152602001600582018054610759906112d1565b80601f0160208091040260200160405190810160405280929190818152602001828054610785906112d1565b80156107d25780601f106107a7576101008083540402835291602001916107d2565b820191906000526020600020905b8154815290600101906020018083116107b557829003601f168201915b50505050508152505091505b80806107e99061125a565b9150506105be565b50809250505090565b60026020528060005260406000206000915090508060000160009054906101000a900460ff16908060010154908060020160009054906101000a900460ff16905083565b600460009054906101000a900460ff1681565b600160205280600052604060002060009150905080600001549080600101805461087a906112d1565b80601f01602080910402602001604051908101604052809291908181526020018280546108a6906112d1565b80156108f35780601f106108c8576101008083540402835291602001916108f3565b820191906000526020600020905b8154815290600101906020018083116108d657829003601f168201915b50505050509080600201549080600301805461090e906112d1565b80601f016020809104026020016040519081016040528092919081815260200182805461093a906112d1565b80156109875780601f1061095c57610100808354040283529160200191610987565b820191906000526020600020905b81548152906001019060200180831161096a57829003601f168201915b5050505050908060040154908060050180546109a2906112d1565b80601f01602080910402602001604051908101604052809291908181526020018280546109ce906112d1565b8015610a1b5780601f106109f057610100808354040283529160200191610a1b565b820191906000526020600020905b8154815290600101906020018083116109fe57829003601f168201915b5050505050905086565b60035481565b60008054906101000a900473ffffffffffffffffffffffffffffffffffffffff1673ffffffffffffffffffffffffffffffffffffffff163373ffffffffffffffffffffffffffffffffffffffff1614610a8357600080fd5b6000806002811115610a9857610a97610ece565b5b600460009054906101000a900460ff166002811115610aba57610ab9610ece565b5b14610ac457600080fd5b60036000815480929190610ad79061125a565b91905055506040518060c0016040528060035481526020018681526020016000815260200185815260200184815260200183815250600160006003548152602001908152602001600020600082015181600001556020820151816001019081610b4091906114ae565b50604082015181600201556060820151816003019081610b6091906114ae565b506080820151816004015560a0820151816005019081610b8091906114ae565b509050505050505050565b6040518060c001604052806000815260200160608152602001600081526020016060815260200160008152602001606081525090565b6000604051905090565b600080fd5b600080fd5b6000819050919050565b610be881610bd5565b8114610bf357600080fd5b50565b600081359050610c0581610bdf565b92915050565b600060208284031215610c2157610c20610bcb565b5b6000610c2f84828501610bf6565b91505092915050565b60038110610c4557600080fd5b50565b600081359050610c5781610c38565b92915050565b600060208284031215610c7357610c72610bcb565b5b6000610c8184828501610c48565b91505092915050565b600073ffffffffffffffffffffffffffffffffffffffff82169050919050565b6000610cb582610c8a565b9050919050565b610cc581610caa565b8114610cd057600080fd5b50565b600081359050610ce281610cbc565b92915050565b600060208284031215610cfe57610cfd610bcb565b5b6000610d0c84828501610cd3565b91505092915050565b610d1e81610bd5565b82525050565b600081519050919050565b600082825260208201905092915050565b60005b83811015610d5e578082015181840152602081019050610d43565b60008484015250505050565b6000601f19601f8301169050919050565b6000610d8682610d24565b610d908185610d2f565b9350610da0818560208601610d40565b610da981610d6a565b840191505092915050565b600060c083016000830151610dcc6000860182610d15565b5060208301518482036020860152610de48282610d7b565b9150506040830151610df96040860182610d15565b5060608301518482036060860152610e118282610d7b565b9150506080830151610e266080860182610d15565b5060a083015184820360a0860152610e3e8282610d7b565b9150508091505092915050565b60006020820190508181036000830152610e658184610db4565b905092915050565b60008115159050919050565b610e8281610e6d565b82525050565b610e9181610bd5565b82525050565b6000606082019050610eac6000830186610e79565b610eb96020830185610e88565b610ec66040830184610e79565b949350505050565b7f4e487b7100000000000000000000000000000000000000000000000000000000600052602160045260246000fd5b60038110610f0e57610f0d610ece565b5b50565b6000819050610f1f82610efd565b919050565b6000610f2f82610f11565b9050919050565b610f3f81610f24565b82525050565b6000602082019050610f5a6000830184610f36565b92915050565b600082825260208201905092915050565b6000610f7c82610d24565b610f868185610f60565b9350610f96818560208601610d40565b610f9f81610d6a565b840191505092915050565b600060c082019050610fbf6000830189610e88565b8181036020830152610fd18188610f71565b9050610fe06040830187610e88565b8181036060830152610ff28186610f71565b90506110016080830185610e88565b81810360a08301526110138184610f71565b9050979650505050505050565b60006020820190506110356000830184610e88565b92915050565b600080fd5b600080fd5b7f4e487b7100000000000000000000000000000000000000000000000000000000600052604160045260246000fd5b61107d82610d6a565b810181811067ffffffffffffffff8211171561109c5761109b611045565b5b80604052505050565b60006110af610bc1565b90506110bb8282611074565b919050565b600067ffffffffffffffff8211156110db576110da611045565b5b6110e482610d6a565b9050602081019050919050565b82818337600083830152505050565b600061111361110e846110c0565b6110a5565b90508281526020810184848401111561112f5761112e611040565b5b61113a8482856110f1565b509392505050565b600082601f8301126111575761115661103b565b5b8135611167848260208601611100565b91505092915050565b6000806000806080858703121561118a57611189610bcb565b5b600085013567ffffffffffffffff8111156111a8576111a7610bd0565b5b6111b487828801611142565b945050602085013567ffffffffffffffff8111156111d5576111d4610bd0565b5b6111e187828801611142565b93505060406111f287828801610bf6565b925050606085013567ffffffffffffffff81111561121357611212610bd0565b5b61121f87828801611142565b91505092959194509250565b7f4e487b7100000000000000000000000000000000000000000000000000000000600052601160045260246000fd5b600061126582610bd5565b91507fffffffffffffffffffffffffffffffffffffffffffffffffffffffffffffffff82036112975761129661122b565b5b600182019050919050565b7f4e487b7100000000000000000000000000000000000000000000000000000000600052602260045260246000fd5b600060028204905060018216806112e957607f821691505b6020821081036112fc576112fb6112a2565b5b50919050565b60008190508160005260206000209050919050565b60006020601f8301049050919050565b600082821b905092915050565b6000600883026113647fffffffffffffffffffffffffffffffffffffffffffffffffffffffffffffffff82611327565b61136e8683611327565b95508019841693508086168417925050509392505050565b6000819050919050565b60006113ab6113a66113a184610bd5565b611386565b610bd5565b9050919050565b6000819050919050565b6113c583611390565b6113d96113d1826113b2565b848454611334565b825550505050565b600090565b6113ee6113e1565b6113f98184846113bc565b505050565b5b8181101561141d576114126000826113e6565b6001810190506113ff565b5050565b601f8211156114625761143381611302565b61143c84611317565b8101602085101561144b578190505b61145f61145785611317565b8301826113fe565b50505b505050565b600082821c905092915050565b600061148560001984600802611467565b1980831691505092915050565b600061149e8383611474565b9150826002028217905092915050565b6114b782610d24565b67ffffffffffffffff8111156114d0576114cf611045565b5b6114da82546112d1565b6114e5828285611421565b600060209050601f8311600181146115185760008415611506578287015190505b6115108582611492565b865550611578565b601f19841661152686611302565b60005b8281101561154e57848901518255600182019150602085019450602081019050611529565b8683101561156b5784890151611567601f891682611474565b8355505b6001600288020188555050505b50505050505056fea26469706673582212205cab0a18373e992e6c1eb3c37d765b44d597d810ca9c4d5b391143aff79f95a364736f6c63430008130033",
  "immutableReferences": {},
  "source": "// SPDX-License-Identifier: MIT\r\npragma solidity 0.8.19;\r\npragma experimental ABIEncoderV2;\r\n\r\ncontract Contest{\r\n\t\r\n\tstruct Contestant{\r\n\t\tuint id;\r\n\t\tstring name;\r\n\t\tuint voteCount;\r\n\t\tstring party;\r\n\t\tuint age;\r\n\t\tstring qualification;\r\n\t}\r\n\r\n\tstruct Voter{\r\n\t\tbool hasVoted;\r\n\t\tuint vote;\r\n\t\tbool isRegistered;\r\n\t}\r\n\r\n\taddress admin;\r\n\tmapping(uint => Contestant) public contestants; \r\n    mapping(address => Voter) public voters;\r\n\tuint public contestantsCount;\r\n\tenum PHASE{reg, voting , done}\r\n\tPHASE public state;\r\n\r\n\tmodifier onlyAdmin(){\r\n\t\trequire(msg.sender==admin);\r\n\t\t_;\r\n\t}\r\n\t\r\n\tmodifier validState(PHASE x){\r\n\t    require(state==x);\r\n\t    _;\r\n\t}\r\n\r\n\tconstructor(){\r\n\t\tadmin=msg.sender;\r\n        state=PHASE.reg;\r\n\t}\r\n\r\n    function changeState(PHASE x) onlyAdmin public{\r\n\t\trequire(x > state);\r\n        state = x;\r\n    }\r\n\r\n\tfunction addContestant(string memory _name , string memory _party , uint _age , string memory _qualification) public onlyAdmin validState(PHASE.reg){\r\n\t\tcontestantsCount++;\r\n\t\tcontestants[contestantsCount]=Contestant(contestantsCount,_name,0,_party,_age,_qualification);\r\n\t}\r\n\r\n\tfunction voterRegisteration(address user) public onlyAdmin validState(PHASE.reg){\r\n\t\tvoters[user].isRegistered=true;\r\n\t}\r\n\r\n\tfunction vote(uint _contestantId) public validState(PHASE.voting){\r\n\t\trequire(voters[msg.sender].isRegistered);\r\n\t\trequire(!voters[msg.sender].hasVoted);\r\n        require(_contestantId > 0 && _contestantId<=contestantsCount);\r\n\t\tcontestants[_contestantId].voteCount++;\r\n\t\tvoters[msg.sender].hasVoted=true;\r\n\t\tvoters[msg.sender].vote=_contestantId;\r\n\t}\r\n\r\n\tfunction getWinner() public view validState(PHASE.done) returns (Contestant memory winner) {\r\n\t\tContestant memory currentWinner;\r\n\t\tfor (uint i=1; i<=contestantsCount; i++) {\r\n\t\t\tif (contestants[i].voteCount > currentWinner.voteCount) {\r\n\t\t\t\tcurrentWinner = contestants[i];\r\n\t\t\t}\r\n\t\t}\r\n\t\twinner = currentWinner;\r\n\t}\r\n}",
  "sourcePath": "/var/www/html/voteContest/contracts/Contest.sol",
  "compiler": {
    "name": "solc",
    "version": "0.8.19+commit.7dd6d404.Emscripten.clang"
  },
  "schemaVersion": "3.4.13",
  "updatedAt": "2023-03-07T06:28:55.775Z",
  "networkType": "ethereum",
  "devdoc": {
    "kind": "dev",
    "methods": {},
    "version": 1
  },
  "userdoc": {
    "kind": "user",
    "methods": {},
    "version": 1
  }
}